:100000000C9464000C948C000C948C000C948C0068
:100010000C948C000C948C000C948C000C94A30F0A
:100020000C948C000C948C000C948C000C94A110FB
:100030000C948C000C948C000C948C000C948C0010
:100040000C9457100C948C000C9425100C94FF0FFA
:100050000C948C000C948C000C948C000C948C00F0
:100060000C948C000C948C000000000024002700ED
:100070002A0000000008000201000003040700003D
:1000800000000000000002000000002300260029FC
:100090000001020408102040800102040810200121
:1000A000020408102000000000250028002B000496
:1000B000040404040404040202020202020303030F
:1000C000030303009711F21511241FBECFEFD8E0F0
:1000D000DEBFCDBF11E0A0E0B1E0ECEEF1E302C085
:1000E00005900D92AC35B107D9F723E0ACE5B1E04E
:1000F00001C01D92A833B207E1F710E0C3E6D0E0DB
:1001000004C02197FE010E94BE17C236D107C9F76D
:100110000E9451120C94E9180C940000AF92BF9207
:10012000CF92DF92EF92FF920F931F93CF93DF93C3
:100130007C016B015A01FC01808191812091310386
:1001400030913203C1E0D0E08217930708F062C01B
:100150009C01220F331FE0912F03F0913003E20F37
:10016000F31F00811181EC01C095D095C170DD278E
:100170002CE93FEF80FF02C024E630E02A0D3B1D52
:10018000C90163E470E00E94AA170617170754F02C
:10019000C90168E270E00E94AA176F5F7F4F601785
:1001A00071076CF52A0D3B1DC90163E470E00E94E4
:1001B000AA170617170754F0C90168E270E00E94F9
:1001C000AA176F5F7F4F6017710784F52A0D3B1DDB
:1001D000C90163E470E00E94AA170617170764F0CC
:1001E000C90168E270E00E94AA176F5F7F4F23E0A9
:1001F00030E0601771072CF4CFEFDFEF0BC021E088
:1002000030E0F601808191810196821793078CF48A
:1002100091838083CE01DF91CF911F910F91FF9049
:10022000EF90DF90CF90BF90AF90089522E030E044
:10023000E8CF11821082F701808191810196E8CF89
:10024000AF92BF92CF92DF92EF92FF920F931F93E4
:10025000CF93DF936C017B018B01040F151FEB0122
:100260005E01AE18BF08C017D10759F06991D601D9
:10027000ED91FC910190F081E02DC6010995892B4B
:1002800079F7C501DF91CF911F910F91FF90EF900A
:10029000DF90CF90BF90AF900895FC01538D448DB7
:1002A000252F30E0842F90E0821B930B541710F021
:1002B000CF96089501970895FC01918D828D98172E
:1002C00061F0A28DAE0FBF2FB11D5D968C91928D06
:1002D0009F5F9F73928F90E008958FEF9FEF089537
:1002E000FC01918D828D981731F0828DE80FF11D00
:1002F000858D90E008958FEF9FEF0895FC01918D1B
:10030000228D892F90E0805C9F4F821B91098F7313
:100310009927089588E991E00E947E0121E0892BC8
:1003200009F420E0822F089580E090E0892B29F0E5
:100330000E948A0181110C9400000895FC01A48D93
:10034000A80FB92FB11DA35ABF4F2C91848D90E0F7
:1003500001968F739927848FA689B7892C93A089DA
:10036000B1898C91837080648C93938D848D981364
:1003700006C00288F389E02D80818F7D80830895F7
:10038000EF92FF920F931F93CF93DF93EC0181E0E5
:10039000888F9B8D8C8D98131AC0E889F98980818C
:1003A00085FF15C09FB7F894EE89FF896083E889BF
:1003B000F98980818370806480839FBF81E090E0B1
:1003C000DF91CF911F910F91FF90EF900895F62E3E
:1003D0000B8D10E00F5F1F4F0F731127E02E8C8DD8
:1003E0008E110CC00FB607FCFACFE889F98980811D
:1003F00085FFF5CFCE010E949E01F1CFEB8DEC0F72
:10040000FD2FF11DE35AFF4FF0829FB7F8940B8F39
:10041000EA89FB8980818062CFCFCF93DF93EC01A3
:10042000888D8823B9F0AA89BB89E889F9898C91DC
:1004300085FD03C0808186FD0DC00FB607FCF7CF98
:100440008C9185FFF2CF808185FFEDCFCE010E9498
:100450009E01E9CFDF91CF910895833081F028F498
:10046000813099F08230A9F008958730A9F0883062
:10047000C9F08430B1F4809180008F7D03C08091F9
:1004800080008F7780938000089584B58F7784BD36
:10049000089584B58F7DFBCF8091B0008F778093D6
:1004A000B00008958091B0008F7DF9CFCF93DF9396
:1004B000282F30E0F901EE58FF4F8491F901EF56F3
:1004C000FF4FD491F901E155FF4FC491CC23A1F026
:1004D00081110E942D02EC2FF0E0EE0FFF1FE95773
:1004E000FF4FA591B491EC91ED2381E090E009F4E8
:1004F00080E0DF91CF91089580E090E0FACF1F93E4
:10050000CF93DF93282F30E0F901EE58FF4F84910D
:10051000F901EF56FF4FD491F901E155FF4FC49116
:10052000CC23A9F0162F81110E942D02EC2FF0E0B0
:10053000EE0FFF1FEB55FF4FA591B4918FB7F894C5
:10054000EC91111108C0D095DE23DC938FBFDF91B1
:10055000CF911F910895DE2BF8CF90910001891360
:100560000BC0E6E8F0E0E4919FEF90930001E130EA
:1005700049F028F0E23061F060E00C947F021092C4
:100580006E00FACF90916F009D7F90936F00F4CF33
:10059000909170009D7F9093700091E09093B000D7
:1005A0009091B100987F94609093B1001092B30045
:1005B000E3CFCF93DF9390E0FC01EF56FF4F249100
:1005C00081559F4FFC0184918823D1F090E0880FE2
:1005D000991FFC01E859FF4FA591B491FC01EB551F
:1005E000FF4FC591D49161110EC09FB7F8948C91C3
:1005F000E22FE0958E238C932881E223E8839FBF2E
:10060000DF91CF9108958FB7F894EC91E22BEC93A2
:100610008FBFF6CF1F93CF93DF93182FEB0161E0CD
:100620000E94D902209739F460E0812FDF91CF91A9
:100630001F910C947F02CF3FD10511F461E0F5CFFB
:10064000E12FF0E0EE58FF4FE491E33031F140F458
:10065000E130B1F0E230E1F0C038D1057CF7E4CF11
:10066000E73029F1E83059F1E430B1F780918000AA
:10067000806280938000D0938B00C0938A0004C076
:1006800084B5806884BDC7BDDF91CF911F91089567
:1006900084B5806284BDC8BDF7CF8091800080683A
:1006A00080938000D0938900C0938800EDCF809123
:1006B000B00080688093B000C093B300E5CF809114
:1006C000B00080628093B000C093B400DDCF8E5044
:1006D000806480937C0080917A00806480937A00AB
:1006E00080917A0086FDFCCF80917800909179000E
:1006F00008953FB7F89480916F0190917001A09197
:100700007101B091720126B5A89B05C02F3F19F069
:100710000196A11DB11D3FBFBA2FA92F982F882781
:10072000BC01CD01620F711D811D911D42E0660F5C
:10073000771F881F991F4A95D1F708958F929F922E
:10074000AF92BF92CF92DF92EF92FF926B017C014A
:100750000E9479034B015C01C114D104E104F1044E
:10076000B9F00E947903681979098A099B09683EE2
:1007700073408105910580F321E0C21AD108E10898
:10078000F10888EE880E83E0981EA11CB11CE4CF0E
:10079000FF90EF90DF90CF90BF90AF909F908F90A1
:1007A000089560E087E00E947F0260E084E00E949C
:1007B0007F0270E060E086E00E940A0370E060E083
:1007C00085E00C940A03CF93DF93EC01A0916601BE
:1007D000B09167019C010E945E1624E630E040E083
:1007E00050E00E943416CE01820F931F8F3F910577
:1007F00019F010F08FEF90E0DF91CF910895CF9333
:10080000DF93EC01A0916801B09169019C010E9405
:100810005E1624E630E040E050E00E943416CE013F
:10082000820F931F8F3F910519F010F08FEF90E02A
:10083000DF91CF9108950F931F93CF93DF93C091D2
:100840000101D0910201CE010E94FF038C01CE0173
:100850000E94E303EC0161E087E00E947F0260E018
:1008600084E00E947F02B80186E00E940A039E0194
:10087000A2E3B0E00E945E1624E630E040E050E0E3
:100880000E943416B90185E0DF91CF911F910F913D
:100890000C940A030F931F93CF93DF93C091010130
:1008A000D0910201CE010E94FF038C01CE010E9473
:1008B000E303EC0160E087E00E947F0261E084E0F6
:1008C0000E947F029801A2E3B0E00E945E1624E637
:1008D00030E040E050E00E943416B90186E00E940A
:1008E0000A03BE0185E0DF91CF911F910F910C9417
:1008F0000A030F931F93CF93DF9382E090E09093CE
:100900006901809368011092670110926601C0919D
:100910000101D0910201CE010E94FF038C01CE01A2
:100920000E94E303EC0160E087E00E947F0260E048
:1009300084E00E947F02B80186E00E940A03BE01A3
:1009400085E0DF91CF911F910F910C940A030F93D3
:100950001F93CF93DF9387E090E09093690180939A
:1009600068011092670110926601C0910101D09157
:100970000201CE010E94FF038C01CE010E94E3031D
:10098000EC0161E087E00E947F0261E084E00E9468
:100990007F02B80186E00E940A03BE0185E0DF9174
:1009A000CF911F910F910C940A038F929F92AF9257
:1009B000BF92EF92FF920F931F93CF93DF93CDB728
:1009C000DEB729970FB6F894DEBF0FBECDBF962FC6
:1009D000F901319720910E0330910F03E217F307CD
:1009E00008F048C050E070E060E0592B682B4B01E4
:1009F000AA24BB24052F162F272F3327B02FA42F6F
:100A000080911403982D882391F0E82EF12CE89C16
:100A1000D001E99CB00DF89CB00D11249B2F809F54
:100A200080011124B12F849FA0011124A52F809152
:100A30001A03209115033091160340911703841374
:100A4000B1C0AF01440F551FE40FF51F2E0F3F1F1C
:100A5000E0911703E20FF32FF11D9083E09118034B
:100A6000E20FF32FF11DB08380911903280F311D80
:100A7000F901A0838091150390911603892B09F445
:100A800080C080901B0390901C03A0901D03B09029
:100A90001E030E947903681579058A059B0550F4A9
:100AA0000E94790360931B0370931C0380931D03C2
:100AB00090931E030E94790300911B0310911C0365
:100AC00020911D0330911E03601B710B820B930B51
:100AD0006C32714081059105A0F2F8948091100369
:100AE000909111039A838983E0911503F091160385
:100AF000DF0111968081898790910C03E0911F039B
:100B0000F091200380912103992309F456C090812C
:100B1000982B98879081809589238F838F818C83F0
:100B200088E08B8358856F8149853B812C81898141
:100B30009A81508347FD252F3A952083262F39F03F
:100B4000441F00C000006083000000C0F2CF38E006
:100B50004D9160830000019761F7F0932003E093CB
:100B60001F0349873B832C839A83898378940E944F
:100B7000790360931B0370931C0380931D03909370
:100B80001E0329960FB6F894DEBF0FBECDBFDF91CE
:100B9000CF911F910F91FF90EF90BF90AF909F90DA
:100BA0008F900895EE0FFF1FEE0FFF1F2E0F3F1FB8
:100BB000F901E80FF11D10824BCF9081982B988797
:100BC0009081809589238F838F818E8388E08D83A8
:100BD00058856F8149853D812E8189819A81508315
:100BE00047FD252F00C000C0208300C000C000C00A
:100BF00000C000C060830000262F3A9541F0441FDA
:100C0000000000C000C000C000C000C0E8CF38E055
:100C10004D9100C0608300C0019709F7F093200355
:100C2000E0931F0349873D832E839ECFCF9380910E
:100C30000001883061F08F3F99F168EC70E080E04E
:100C400090E00E949E0388E0CF910C94AD02E6E80C
:100C5000F0E0C491C7FDF1CF61E088E00E94D902C5
:100C6000CC2309F48CC0C23009F0A0C08091B1003F
:100C7000887F83608093B10089EF8093B3008FEF0A
:100C80009FEFDC018093760190937701A093780128
:100C9000B093790180917000826080937000CDCF15
:100CA00088E080930001E6E8F0E0C491CF3F09F4CA
:100CB000C4CFC13021F150F0C23009F43EC0C7FDAD
:100CC000BCCF61E088E00E94D902CDCF14BC15BC36
:100CD00084B5826084BD85B5816085BDE7EBF0E0B9
:100CE000E491F0E0EE0FFF1FEB55FF4F85919491DB
:100CF000E9E9F0E0E491E0935D01C0E0ADCF10924E
:100D00008000109281008091810088608093810032
:100D100080918100816080938100E7EBF0E0E491B5
:100D2000F0E0EE0FFF1FEB55FF4F85919491E9E93D
:100D3000F0E0E491E0935C018FCF1092B00010924C
:100D4000B1008091B00082608093B0008091B100CA
:100D500081608093B100E7EBF0E0E491F0E0EE0F0A
:100D6000FF1FEB55FF4F85919491909374018093F1
:100D70007301E9E9F0E0E491E09375016DCF85B589
:100D8000887F836085BD8CE787BD8FEF9FEFDC0197
:100D90008093620190936301A0936401B093650115
:100DA00080916E00826080936E0047CFC130E9F47D
:100DB00080918100887F8160809381008FE39FE133
:100DC00090938900809388008FEF9FEFDC018093E0
:100DD0005E0190935F01A0936001B09361018091E7
:100DE0006F00826080936F0028CFC23021F0C11164
:100DF00024CF8FE3C9CF8FE340CF4F925F926F92A2
:100E00007F928F929F92AF92BF92CF92DF92EF929A
:100E1000FF920F931F93CF93DF93F82FE62FC0908D
:100E20002F03D09030034A0184E6880E911C83E49E
:100E3000E82EF12CC401B7010E94AA175B01C8E299
:100E4000D0E0C401BE010E94AA172B018FEF481AFF
:100E5000580A24563109C901B7010E94AA174B014B
:100E6000C901BE010E94AA173B018FEF681A780AD8
:100E700004561109C801B7010E94AA179B01C801B5
:100E8000BE010E94AA17AB014F5F5F4FFF0FFE0F1D
:100E900060E070E0CB01AE2FB0E0AA0FBB1FAC0D3D
:100EA000BD1D0D90BC91A02DAA15BB057CF14A1665
:100EB0005B0664F1A1E0AE0FB0E0AA0FBB1FAC0D62
:100EC000BD1D0D90BC91A02DA815B905E4F06A16C2
:100ED0007B0604F1660F771F881F991F6160EE5F24
:100EE000FE13D9CFDF91CF911F910F91FF90EF901B
:100EF000DF90CF90BF90AF909F908F907F906F903A
:100F00005F904F900895A217B30724F460E070E05B
:100F1000CB01E8CF4A175B07CCF3660F771F881F1A
:100F2000991FDDCF2F923F924F925F926F927F92E7
:100F30008F929F92AF92BF92CF92DF92EF92FF92E9
:100F40000F931F93CF93DF93CDB7DEB728970FB6DC
:100F5000F894DEBF0FBECDBF80913502F12C8330F7
:100F600009F064C08DE392E09093300380932F03E7
:100F7000C0903902D0903A02D0923203C09231032D
:100F800081E090910703911101C080E080933303C9
:100F9000109225031092240310922E03A0903F027A
:100FA000B0904002C501875891098E35910508F02F
:100FB0007CC024E0C216D10409F052C080914102E5
:100FC000909142028097479708F06FC0809143024A
:100FD000909144020997099708F067C010922B037B
:100FE00010922A038FEF9FEFDC01809326039093EA
:100FF0002703A0932803B093290381E080932E0355
:101000008BE090E09093230380932203FF24F394DA
:1010100082E1E2E2F3E0A6E8B1E001900D928A9568
:10102000E1F7FF2009F443C0FF24F3948F2D2896A5
:101030000FB6F894DEBF0FBECDBFDF91CF911F91E9
:101040000F91FF90EF90DF90CF90BF90AF909F9067
:101050008F907F906F905F904F903F902F9008956A
:1010600084E4C816D10408F18091410290914202B3
:10107000815491098F97C8F400E312E02AE936E021
:1010800040E352E063E080E20E94FD0620E230E0AF
:1010900030932B0320932A03609326037093270336
:1010A0008093280390932903ABCFF12CB1CF90E22A
:1010B000C916D10409F4ADC073E0272E312CA0E687
:1010C000CA16D10409F4A8C082E1E2E2F3E0A6E87E
:1010D000B1E001900D928A95E1F7F110A5CF90E271
:1010E000C916D10408F45CC080917B0290917C0207
:1010F0000397059708F054C08091790290917A0285
:101100000897099708F04CC020913D0230913E02AB
:10111000A2E3B0E00E945E166135734C8105910533
:101120000CF4EEC0E5E3F2E090E080E024AD35ADF4
:10113000283131050CF4D9C02B3231058CF5880FDC
:10114000991F81603497B2E0E130FB0779F72DE019
:1011500030E030932B0320932A039C012072332725
:1011600021503109309325032093240335E09695CF
:1011700087953A95E1F7B0E0A0E08093260390933D
:101180002703A0932803B093290382E190E0909372
:1011900023038093220381E080930301FF24F394CF
:1011A00082E1E2E2F3E0A6E8B1E001900D928A95D7
:1011B000E1F7F11039CFEAE1CE16D10408F4F6C018
:1011C00020913D0230913E0242E3429FC001439F85
:1011D000900D1124843F914008F0B2C010922B036F
:1011E00010922A038FEF9FEFDC01809326039093E8
:1011F0002703A0932803B093290381E080932E0353
:101200008FEF9FEF9093230380932203FF24F394A7
:10121000CDC022242394312CC5010397059708F0F3
:1012200053CF8091410290914202893191050CF493
:1012300054C08C970CF048CFEE24E394412C512CF1
:101240003201912C812C0BE113E02DE037E04AEFC5
:1012500050E06E2D85E00E94FD066D837E838F83B6
:1012600098872DE037E04AEF50E065E06E0D88E0AA
:101270000E94FD06411451046104710431F06415AB
:1012800075058605970509F01FCF2B013C01409499
:10129000BFEF8B1A9B0AE6E0EE0E2814390499F68C
:1012A0002FE030E030932B0320932A036093260332
:1012B0007093270380932803909329038D819E8147
:1012C000909325038093240381E190E0909323037E
:1012D00080932203FF24F394F7CE8A3091050CF417
:1012E000F3CE43970CF4A8CFEFCE283031050CF4A1
:1012F00057CF213131050CF053CF880F991F22CFE2
:1013000080910301811119C010922B0310922A03BE
:101310008FEF9FEFDC018093260390932703A09328
:101320002803B093290381E080932E0381E190E0AC
:10133000909323038093220331CF1092030130CF87
:10134000C50185974B9790F5E5E3F2E082E090E0E8
:1013500040E050E0BA019C012F5F3F4F2C153D0546
:10136000C0F424853585275031092730310588F4AC
:1013700026853785233131050CF44FC522323105DE
:10138000ACF4440F551F661F771F416002963496D8
:10139000E2CF01979695879590932B0380932A032C
:1013A0000C97E0F510922B0310922A0382E1E2E2FF
:1013B000F3E0A6E8B1E001900D928A95E1F7F11013
:1013C00033CE2AE1C216D10408F47CC020913D023C
:1013D00030913E0242E3429FC001439F900D112491
:1013E0008032934030F510922B0310922A038FEF36
:1013F0009FEFDC018093260390932703A09328039B
:10140000B093290381E080932E0380E190E09093D4
:10141000230380932203FF24F39454C040932603B4
:1014200050932703609328037093290383E190E08E
:10143000E9CEC501C597879708F044C08091410265
:1014400090914202C5978797E8F5E5E3F2E083E0E3
:1014500090E040E050E0BA019C012F5F3F4F2C1517
:101460003D0510F5268537852C5031092B30310587
:10147000D8F420893189253231055CF020343105DA
:101480000CF5440F551F661F771F41600296349676
:10149000E3CF2B303105B4F0263131059CF4440FF5
:1014A000551F661F771FF2CF0197969587959093EA
:1014B0002B0380932A030C9708F0C6C010922B03CD
:1014C00010922A0382E1E2E2F3E0A6E8B1E00190A3
:1014D0000D928A95E1F7F110A7CDB2E2CB16D104B7
:1014E00008F447C0E6E0AE1AB108F7E0AF16B10461
:1014F00008F03FC0E5E3AE2EE2E0BE2E43E050E050
:1015000080E090E0DC019A01215031094C155D0525
:1015100000F58501F501248535852E3131050CF462
:101520009EC0253331052CF5880F991FAA1FBB1FBC
:101530008160BA016E5F7F4FF4E0AF0EB11CF8011D
:1015400026853785235031092530310508F485C0BB
:101550009A01215031093695279530932B0320931A
:101560002A032031310508F087C010922B03109216
:101570002A0382E1E2E2F3E0A6E8B1E001900D92F5
:101580008A95E1F7F11050CD1C821B8281E090E03A
:101590009A838983FDE0CF16D10408F49BC049E704
:1015A00053E0BE016D5F7F4FCE0101960E948E0019
:1015B000892B09F08FC049E753E0BE016D5F7F4F73
:1015C000CE0101960E948E00019709F083C049E781
:1015D00053E0BE016D5F7F4FCE0101960E948E00E9
:1015E0006C01892B09F076C0812C912C540120913B
:1015F00031033091320389819A818217930708F071
:1016000055C049E753E0BE016D5F7F4FCE010196A3
:101610000E948E008C0149E753E0BE016D5F7F4F51
:10162000CE0101960E948E0001301105B1F5892B83
:1016300009F050C0880C991CAA1CBB1C689480F847
:101640002FEFC21AD20AD3CF409326035093270319
:101650006093280370932903D8CEAB0154CF2C306C
:1016600031050CF486CF273131050CF082CF880F7D
:10167000991FAA1FBB1F5DCF80932603909327035A
:10168000A0932803B093290389E090E0909323036B
:1016900080932203FF24F3946CCF012BD9F401979C
:1016A000C9F4880C991CAA1CBB1CCACFD0922B036E
:1016B000C0922A038092260390922703A0922803C7
:1016C000B09229038DE090E090932303809322034E
:1016D000FF24F39482E1E2E2F3E0A6E8B1E00190B6
:1016E0000D928A95E1F7F1109FCC1C821B8281E05C
:1016F00090E09A8389838091310390913203892B02
:1017000009F480C0E0912F03F0913003828193812E
:1017100089974E9708F076C082E090E09A8389839B
:10172000848195810B970A9708F06CC083E090E064
:101730009A8389834CEB51E0BE016D5F7F4FCE01F0
:1017400001960E948E006C01892B09F05BC04CEB66
:1017500051E0BE016D5F7F4FCE0101960E948E0069
:10176000019709F04FC0412C512C320120913103D7
:101770003091320389819A818217930708F094C2CD
:101780004CEB51E0BE016D5F7F4FCE0101960E9490
:101790008E004C0183E0C816D10441F14CEB51E0BE
:1017A000BE016D5F7F4FCE0101960E948E005C01ED
:1017B00093E0C916D10461F44CEB51E0BE016D5FBA
:1017C0007F4FCE0101960E948E00A816B906D1F473
:1017D0008114910409F45AC28A94892899F4AB2897
:1017E00089F4440C551C661C771C5AC24CEB51E022
:1017F000BE016D5F7F4FCE0101960E948E0088165C
:10180000990661F282E1E2E2F3E0A6E8B1E001903C
:101810000D928A95E1F7F11007CCC0902F03D0907C
:101820003003D60112968D919C911397C597879797
:1018300098F514968D919C914B97459768F500E922
:1018400011E02CED34E046EF51E063E080E10E94CE
:10185000FD064B012CED34E046EF51E063E180E200
:101860000E94FD066093260370932703809328034C
:101870009093290390922503809224038CE090E0BA
:10188000909323038093220380E390E090932B03B3
:1018900080932A03FF24F39482E1E2E2F3E0A6E8D6
:1018A000B1E001900D928A95E1F7F110BDCB8090E7
:1018B000390290903A02B9E38B169104B0F1F60127
:1018C000828193818E5791098835910570F58481C5
:1018D0009581CD978B9748F506E212E020E436E03B
:1018E00048E552E063E08CE10E94FD06D6011696C1
:1018F0002D913C912A50310929303105B0F42CE169
:1019000030E030932B0320932A03609326037093D7
:101910002703809328039093290387E090E0909316
:10192000230380932203FF24F39482E1E2E2F3E0B5
:10193000A6E8B1E001900D928A95E1F7F11074CB21
:10194000A0903103B0903203F60182819381F2E2DC
:10195000AF16B10409F0BDC19C012A5031092930EC
:10196000310508F0B6C1F601EE5BFF4F20813181F1
:101970002A5031092930310508F0ABC110922B03F0
:1019800010922A038FEF9FEFDC0180932603909340
:101990002703A0932803B093290381E080932E03AB
:1019A00085E090E09093230380932203FF24F39437
:1019B00082E1E2E2F3E0A6E8B1E001900D928A95BF
:1019C000E1F7F11031CBD60112968D919C918454A0
:1019D0009109C19750F5B4E08B16910409F0AEC19E
:1019E000F6018481958180974797F8F486819781E5
:1019F00009970997D0F410922B0310922A038FEFC6
:101A00009FEFDC018093260390932703A093280384
:101A1000B093290381E080932E038FE090E09093B0
:101A2000230380932203FF24F39482E1E2E2F3E0B4
:101A3000A6E8B1E001900D928A95E1F7F110F4CAA1
:101A4000B6E4AB16B104F0F1F601828193810C97F4
:101A50000B97C0F5848195810997099798F5868140
:101A600097818C974F9770F58085918589974D97D1
:101A700048F50EEE12E026E638E04EEE52E065E064
:101A800080E20E94FD06D6011A962D913C912C50C1
:101A900031092B303105B0F420E230E030932B03D4
:101AA00020932A03609326037093270380932803CF
:101AB0009093290384E190E0909323038093220381
:101AC000FF24F39482E1E2E2F3E0A6E8B1E00190C2
:101AD0000D928A95E1F7F110A7CAB8E5AB16B104EB
:101AE00008F452C0F60182819381845891098C35A3
:101AF000910508F049C084819581815491098F979F
:101B000008F042C04DE150E090E080E0D50114972C
:101B10004A175B0708F043C122AD33AD28503109A5
:101B20002930310588F59A012F5F3F4F64AD75ADBF
:101B30006730710554F06E3071050CF426C16751A1
:101B400071096331710508F427C1215031093695B7
:101B5000279530932B0320932A032A323105A0F0D6
:101B6000092E000CAA0BBB0B80932603909327032E
:101B7000A0932803B093290381E090E0909323037E
:101B800080932203FF24F39482E1E2E2F3E0A6E8EB
:101B9000B1E001900D928A95E1F7F11045CAF0E2AB
:101BA0008F16910471F5D60112968D919C91139721
:101BB0000597079730F514968D919C910997099791
:101BC00000F50EEE12E028E037E04CE251E063E071
:101BD0008EE00E94FD062EE030E030932B03209330
:101BE0002A0360932603709327038093280390931E
:101BF000290383E090E09093230380932203FF2442
:101C0000F39482E1E2E2F3E0A6E8B1E001900D9204
:101C10008A95E1F7F11008CAB6E0AB16B10408F4F2
:101C2000EEC0E2E0CE0ED11C03E010E025EC3DE971
:101C30004CE151E87AE0F72ED60114968D919C91F3
:101C40001597ED91FD916D01F89E4001F99E900C64
:101C50001124DF0163E0AA0FBB1F6A95E1F78A1622
:101C60009B0608F49EC0FE9EB001FF9E700D1124DD
:101C7000E3E0880F991FEA95E1F7E2E0F0E06817EA
:101C8000790708F490C0E1E0F0E08DC0AA94AB2899
:101C900009F0B8CD440C551C661C771C689440F8BC
:101CA000EFEFCE1ADE0A62CDD0922B03C0922A0348
:101CB00040922603509227036092280370922903D2
:101CC0008EE090E09093230380932203FF24F3940B
:101CD00099CD8E5791098835910508F069CE21E29A
:101CE000A216B10408F464CED60114968D919C918D
:101CF000CD978B9708F05CCE06E212E020E436E048
:101D000048E552E063E080E10E94FD06F60126818D
:101D100037812A5031092930310508F049CE20E1B8
:101D200030E030932B0320932A03609326037093B3
:101D30002703809328039093290332CEF4E48F166F
:101D4000910408F472CED60114968D919C91815421
:101D500091098F9708F069CE00E312E020E436E0A5
:101D600040E352E063E080E20E94FD0620E230E0C2
:101D700030932B0320932A03609326037093270349
:101D8000809328039093290348CE880F991F816080
:101D90004E5F5F4F3496BCCE880F991FF9CF9A01E2
:101DA000D4CEF0E0E0E063E971E080E091E00E94F1
:101DB00002162F01FF0F66087708A301920126275C
:101DC0003727482759270F5F1F4FA016B10609F084
:101DD00033CF209326033093270340932803509357
:101DE000290380E290E090932B0380932A038FEFE6
:101DF0009FEF9093230380932203FF24F39482E1C7
:101E0000E2E2F3E0A6E8B1E001900D928A95E1F7F5
:101E1000F1100AC91092350209C92A3031050CF4B3
:101E2000C5CA440F551F661F771FB0CAFC01019039
:101E30000020E9F73197AF01481B590BBC0188E935
:101E400091E00C942001CF93DF930E94160FEC01D8
:101E50008CE191E00E94160F8C0F9D1FDF91CF91B6
:101E60000895CF92DF92EF92FF920F931F9360E05D
:101E7000809108030E947F0283E090E00197F1F7D0
:101E800061E0809108030E947F0283E290E0019765
:101E9000F1F760E0809108030E947F0280910A03BD
:101EA00090910B039927FC01EF56FF4F6491FC01C1
:101EB000E155FF4FE491F0E0EE0FFF1FE957FF4FB0
:101EC0008591949100E412E42FE030E0462F0E94C7
:101ED0005211611571058105910529F06F5F7F4FE2
:101EE0008F4F9F4F9F700E94721620E030E040E0BD
:101EF0005FE30E94D8162AE23EE74CE05DE30E94D1
:101F0000D8166B017C0120E030E0A9010E946D161B
:101F1000882351F020E030E048EC53E4C701B601DB
:101F20000E94D316181634F4C12CD12C80E8E82E68
:101F30008FEBF82EC701B6011F910F91FF90EF9024
:101F4000DF90CF9008951F920F920FB60F92112439
:101F50002F933F934F935F936F937F938F939F93B1
:101F6000AF93BF93EF93FF938091760190917701A8
:101F7000A0917801B0917901892B8A2B8B2BD1F11B
:101F800090917501E0917301F0917401808189272E
:101F900080838091760190917701A0917801B09132
:101FA0007901181619061A061B069CF48091760111
:101FB00090917701A0917801B09179010197A109E1
:101FC000B1098093760190937701A0937801B09343
:101FD0007901FF91EF91BF91AF919F918F917F9187
:101FE0006F915F914F913F912F910F900FBE0F9086
:101FF0001F901895809100010E94AD02EACF1F92B8
:102000000F920FB60F9211242F933F934F935F932C
:102010006F937F938F939F93AF93BF93EF93FF93B0
:1020200088E991E00E949E01FF91EF91BF91AF91ED
:102030009F918F917F916F915F914F913F912F91E0
:102040000F900FBE0F901F9018951F920F920FB612
:102050000F9211242F938F939F93EF93FF93E0910F
:10206000A801F091A9018081E091AE01F091AF014A
:1020700082FD1BC090818091B1018F5F8F73209191
:10208000B201821741F0E091B101F0E0E856FE4F55
:10209000958F8093B101FF91EF919F918F912F9137
:1020A0000F900FBE0F901F9018958081F4CF1F9254
:1020B0000F920FB60F9211242F933F938F939F93FC
:1020C000AF93BF9380916B0190916C01A0916D01D2
:1020D000B0916E0130916A0123E0230F2D3758F53E
:1020E0000196A11DB11D20936A0180936B0190930D
:1020F0006C01A0936D01B0936E0180916F0190917E
:102100007001A0917101B09172010196A11DB11DE4
:1021100080936F0190937001A0937101B09372014D
:10212000BF91AF919F918F913F912F910F900FBED3
:102130000F901F90189526E8230F0296A11DB11D40
:10214000D2CF1F920F920FB60F9211242F933F936D
:102150004F935F936F937F938F939F93AF93BF93AF
:10216000EF93FF93809136020E945602982F409180
:102170003B0250913C024F5F5F4F50933C024093B3
:102180003B022091390230913A022536310530F078
:1021900081E08093070383E08093350280913502CC
:1021A000811138C0911107C04436510508F51092CD
:1021B0003C0210923B0280913802882341F08091CA
:1021C0003702911167C061E0811167C02D9AFF91BC
:1021D000EF91BF91AF919F918F917F916F915F919F
:1021E0004F913F912F910F900FBE0F901F90189518
:1021F0001092070321E030E030933A022093390235
:1022000050933E0240933D0210923C0210923B02DA
:1022100081E019C0809135028130C1F4913059F6C6
:10222000B9016F5F7F4F70933A0260933902220FBA
:10223000331FF901E35CFD4F5183408310923C0250
:1022400010923B0282E080933502B5CF8091350237
:102250008230B9F491110FC0B9016F5F7F4F709355
:102260003A0260933902220F331FF901E35CFD4FFC
:1022700051834083C9CF4536510508F49CCF83E094
:10228000E2CF80913502833009F095CF992309F48C
:102290008ECF91CF882321F060E00E947F0297CFFC
:1022A0002D9895CFCF92DF92EF92FF920F931F93CD
:1022B000E82FF92F05C0015011092109310961F1F9
:1022C000908196239417B9F305C001501109210993
:1022D000310911F1908196239413F7CFC12CD12CA1
:1022E000E12CF12C0AC08FEFC81AD80AE80AF80AC4
:1022F0000C151D052E053F0579F080818623841776
:1023000091F36C2D7D2D8E2D9F2D1F910F91FF90A0
:10231000EF90DF90CF90089560E070E080E090E073
:102320001F910F91FF90EF90DF90CF900895109242
:102330009B0110929A0188EE93E0A0E0B0E08093B8
:102340009C0190939D01A0939E01B0939F018EE00C
:1023500091E0909399018093980185EC90E090939F
:10236000A5018093A40184EC90E09093A701809351
:10237000A60180EC90E09093A9018093A80181ECE4
:1023800090E09093AB018093AA0182EC90E090934F
:10239000AD018093AC0186EC90E09093AF01809307
:1023A000AE011092B1011092B2011092B3011092DD
:1023B000B40192E0909336021092380210920D030D
:1023C0001092140310921B0310921C0310921D0311
:1023D00010921E0381E080931A03809317031092DA
:1023E00018039093190380930C0386E090E0909378
:1023F0001103809310030E94C417909316038093D7
:102400001503009709F444C026E0FC0111922A95B7
:10241000E9F782E090E090930F0380930E038DE044
:1024200090E0909313038093120380910D0388230F
:1024300041F061E08DE00E94D90260E08DE00E94F1
:102440007F02ECEBF0E0E491F0E0EE0FFF1FEB55C4
:10245000FF4F859194919093200380931F03EEE9A1
:10246000F0E0E491E09321038BE090E09093090386
:10247000809308038CE090E090930B0380930A0311
:1024800061E08BE00E94D90260E08CE00C94D902FC
:10249000109211031092100310920F0310920E036A
:1024A000BECFCF93DF93CDB7DEB7A1970FB6F89429
:1024B000DEBF0FBECDBF789484B5826084BD84B585
:1024C000816084BD85B5826085BD85B5816085BD2F
:1024D00080916E00816080936E00109281008091E7
:1024E000810082608093810080918100816080936F
:1024F0008100809180008160809380008091B10094
:1025000084608093B1008091B00081608093B000BE
:1025100080917A00846080937A0080917A00826052
:1025200080937A0080917A00816080937A00809114
:102530007A00806880937A001092C100E091A8012F
:10254000F091A90112E01083E091A401F091A5019E
:102550001082E091A601F091A7018FEC8083109288
:10256000B001E091AC01F091AD0186E08083E09193
:10257000AA01F091AB01808180618083E091AA0182
:10258000F091AB01808188608083E091AA01F09195
:10259000AB01808180688083E091AA01F091AB015A
:1025A00080818F7D808361E088E00E94D90260E0B5
:1025B00085E10E94D90261E086E00E94D90261E0D3
:1025C00087E00E94D90261E085E00E94D90261E0C3
:1025D00084E00E94D90261E08DE00E94D902F89463
:1025E0001092800089E08093810080E293E09093D4
:1025F00089008093880010928500109284001093C7
:102600006F0078941092350260E0809136020E944B
:10261000D90281E08093380261E08DE00E94D90206
:10262000809112039091130397FD08C061E00E940E
:10263000D90260E0809112030E947F0281E08093C2
:102640000D03609114036B3029F120911503309133
:1026500016036150C9F070E08FEF9AE00E94961760
:10266000F9014091100350911103CF01821B930B8C
:102670008417950760F44081469FC001479F900DE5
:10268000112490833196EDCF70E060E0E9CF8BE0CC
:10269000809314030E94D1038FE191E00E94230FE5
:1026A00021E030E040E06FEF80E00E94D50422E0BE
:1026B00030E040E06FEF80E00E94D5040E941606F3
:1026C00021E030E040E060E080E00E94D50422E0BC
:1026D00030E040E060E080E00E94D5048AE0482ECF
:1026E000512C612C712C90E0292E90E0392E11E0B4
:1026F00026E9822E912C85E10E9467038115924084
:102700009CF4009185010E941606002309F471C013
:10271000109285018DE291E00E94230F6AEF70E034
:1027200080E090E00E949E0380918501882309F457
:1027300076C086E490E090930201809301018AE0E4
:102740000E9456027C0189E00E945602EF2809F09F
:1027500055C0892B09F057C00E94A7040E94920718
:102760008823D9F01092350280918A0190918B01D3
:10277000A0918C01B0918D0187399846AF4FB1057A
:1027800061F48DE291E00E94230F109285010E9476
:10279000D103109384010E94160688E991E00E94FB
:1027A0007E0118161906CCF488E991E00E945C01BC
:1027B000082F8093830162E070E080E090E00E9447
:1027C0009E03023351F48DE291E00E94230F109298
:1027D00085010E94D1030E9416062114310409F4D8
:1027E0008ACF0E948A01882309F485CF0E940000C5
:1027F00082CF1093850184E491E08ECF892B61F024
:102800000E94D103ABCF0E941B0466E470E080E01D
:1028100090E00E949E03A2CF0E944A04F6CF9092BD
:102820000201809201010E94310F6B017C0120E0C6
:1028300030E0A9010E946D1687FD84C0C0927F011F
:10284000D0928001E0928101F09282010E94920771
:10285000882309F46CC11092350210927E01809198
:102860008A0190918B01A0918C01B0918D018F3FD5
:102870009F4FAF4FBF4F81F480917A0190917B01C0
:10288000A0917C01B0917D0180938A0190938B018E
:10289000A0938C01B0938D01A0908A01B0908B0120
:1028A000C0908C01D0908D0120E030E040E251E4F6
:1028B00060917F01709180018091810190918201EE
:1028C0000E946D1618160CF44FC02DEFA21622E0D0
:1028D000B2062FEFC206D10409F046C00E94D10310
:1028E0006EE170E080E090E00E949E0382E390E061
:1028F000909302018093010120E030E040E551E433
:1029000060917F017091800180918101909182019D
:102910000E946D1687FF61CF0E94310F6B017C0111
:1029200020E030E0A9010E946D1687FD14C0C0921E
:102930007F01D0928001E0928101F09282010E9499
:102940007904DACF10927F011092800110928101F8
:10295000109282017BCF10927F0110928001109221
:10296000810110928201EBCF19A27E0191E2E90E62
:10297000F11CC601B501A30192010E941216590172
:102980006A01605DF70162937F01A114B104C10483
:10299000D10479F7309719F0CF010E94160F8CE11E
:1029A00091E00E94160F80918A0190918B01A09175
:1029B0008C01B0918D018F36F0E99F07FFEFAF07D3
:1029C000B10509F4A1C008F089C08D3FE2E09E077F
:1029D000EFEFAE07B10509F491C087399846AF4FC4
:1029E000B10509F494C080918A0190918B01A09166
:1029F0008C01B0918D0180937A0190937B01A0931B
:102A00007C01B0937D0188E991E00E947E01181657
:102A10001906C4F488E991E00E945C01082F8093B4
:102A2000830162E070E080E090E00E949E030C363B
:102A300009F498C00CF082C0023309F499C004363E
:102A400009F48DC020E030E040E251E460917F0164
:102A50007091800180918101909182010E946D1698
:102A600018160CF499C080917E01882309F494C053
:102A700010927E010E94D1036EE170E080E090E050
:102A80000E949E0382E390E09093020180930101F3
:102A900020E030E040E551E460917F0170918001D9
:102AA00080918101909182010E946D1687FF72C012
:102AB0000E94310F6B017C0120E030E0A9010E94EF
:102AC0006D1687FD5EC0C0927F01D0928001E092BA
:102AD0008101F09282010E947904DACF873628E9D9
:102AE00092072FEFA207B10561F08F31904EAF4FE3
:102AF000B10509F078CF0E944A0475CF0E94A7045F
:102B000072CF0E9479046FCF0E941B046CCF80911A
:102B10008401811109C084E491E00E94230F109385
:102B200085010E9416065FCF109284015CCF8091D0
:102B30007E01811168CF0E94D10365CF0237A9F0D1
:102B4000053741F00F3609F07DCF0E94D103109276
:102B50007E0178CF0E94A70410937E0173CF0E945C
:102B60007904FACF0E944A04F7CF0E941B04F4CFE5
:102B700084E491E00E94230F109385010E941606C1
:102B800061CF10927F01109280011092810110920A
:102B90008201A1CF0E94D10384E10E94670321E05A
:102BA00030E0843F91409CF44FEF6FEF8FEF0E9435
:102BB000D50422E030E04FEF6FEF8FEF0E94D50495
:102BC00064E670E080E090E00E949E0306CE40E064
:102BD00060E080E00E94D50422E030E040E060E068
:102BE00080E0ECCF80911503909116030E9460184D
:102BF000809112039091130397FD03C060E00C9441
:102C0000D9020895DB018F939F930E945316BF91C1
:102C1000AF91A29F800D911DA39F900DB29F900D2B
:102C200011240895A1E21A2EAA1BBB1BFD010DC0A1
:102C3000AA1FBB1FEE1FFF1FA217B307E407F5076C
:102C400020F0A21BB30BE40BF50B661F771F881F48
:102C5000991F1A9469F760957095809590959B01DE
:102C6000AC01BD01CF010895052E97FB1EF4009421
:102C70000E944B1657FD07D00E94121607FC03D086
:102C80004EF40C944B1650954095309521953F4F3E
:102C90004F4F5F4F089590958095709561957F4F48
:102CA0008F4F9F4F08950E945E16A59F900DB49F71
:102CB000900DA49F800D911D11240895A29FB00135
:102CC000B39FC001A39F700D811D1124911DB29F60
:102CD000700D811D1124911D08950E94AF1608F4F6
:102CE00081E00895E89409C097FB3EF490958095A3
:102CF000709561957F4F8F4F9F4F9923A9F0F92FC2
:102D000096E9BB279395F695879577956795B7953F
:102D1000F111F8CFFAF4BB0F11F460FF1BC06F5F25
:102D20007F4F8F4F9F4F16C0882311F096E911C037
:102D3000772321F09EE8872F762F05C0662371F058
:102D400096E8862F70E060E02AF09A95660F771F6C
:102D5000881FDAF7880F9695879597F90895990F48
:102D60000008550FAA0BE0E8FEEF16161706E80755
:102D7000F907C0F012161306E407F50798F0621B76
:102D8000730B840B950B39F40A2661F0232B242B4B
:102D9000252B21F408950A2609F4A140A6958FEF6A
:102DA000811D811D08950E94AF1608F48FEF0895CC
:102DB0000E94EB160C945C170E944E1738F00E948C
:102DC000551720F0952311F00C9445170C944B17D0
:102DD00011240C9490170E946D1770F3959FC1F306
:102DE000950F50E0551F629FF001729FBB27F00DB9
:102DF000B11D639FAA27F00DB11DAA1F649F66270E
:102E0000B00DA11D661F829F2227B00DA11D621F5C
:102E1000739FB00DA11D621F839FA00D611D221F16
:102E2000749F3327A00D611D231F849F600D211DFA
:102E3000822F762F6A2F11249F5750409AF0F1F07D
:102E400088234AF0EE0FFF1FBB1F661F771F881FE6
:102E500091505040A9F79E3F510580F00C944517C2
:102E60000C9490175F3FE4F3983ED4F386957795E2
:102E70006795B795F795E7959F5FC1F7FE2B880F8C
:102E8000911D9695879597F9089597F99F6780E822
:102E900070E060E008959FEF80EC089500240A94AC
:102EA0001616170618060906089500240A94121625
:102EB0001306140605060895092E0394000C11F458
:102EC000882352F0BB0F40F4BF2B11F460FF04C005
:102ED0006F5F7F4F8F4F9F4F089557FD9058440F5E
:102EE000551F59F05F3F71F04795880F97FB991F69
:102EF00061F09F3F79F08795089512161306140626
:102F0000551FF2CF4695F1DF08C0161617061806B2
:102F1000991FF1CF86957105610508940895E8948D
:102F2000BB2766277727CB0197F90895AA1BBB1B00
:102F300051E107C0AA1FBB1FA617B70710F0A61BB9
:102F4000B70B881F991F5A95A9F780959095BC01DA
:102F5000CD01089597FB072E16F4009407D077FD56
:102F600009D00E94961707FC05D03EF490958195F4
:102F70009F4F0895709561957F4F0895EE0FFF1F45
:102F80000590F491E02D09940F931F93CF93DF9355
:102F90008230910510F482E090E0E0913603F091E8
:102FA000370330E020E0B0E0A0E0309799F421153D
:102FB000310509F44AC0281B390B24303105D8F5F6
:102FC0008A819B816115710589F1FB01938382835D
:102FD000FE0111C0408151810281138148175907B8
:102FE000E0F04817590799F4109761F012960C9386
:102FF000129713961C933296CF01DF91CF911F91B8
:103000000F9108950093360310933703F4CF2115E1
:10301000310551F04217530738F0A901DB019A013D
:10302000BD01DF01F801C1CFEF01F9CF9093370364
:1030300080933603CDCFFE01E20FF31F819391936E
:103040002250310939832883D7CF2091340330911E
:103050003503232B41F42091060130910701309371
:10306000350320933403209104013091050121158B
:10307000310541F42DB73EB7409108015091090147
:10308000241B350BE0913403F0913503E217F3076D
:10309000A0F42E1B3F0B2817390778F0AC014E5FC8
:1030A0005F4F2417350748F04E0F5F1F50933503CD
:1030B00040933403819391939FCFF0E0E0E09CCF65
:1030C000CF93DF930097E9F0FC01329713821282CD
:1030D000A0913603B0913703ED0130E020E0109766
:1030E000A1F420813181820F931F2091340330910C
:1030F00035032817390709F061C0F0933503E093D1
:103100003403DF91CF910895EA01CE17DF07E8F588
:103110004A815B819E0141155105B1F7E901FB83AD
:10312000EA8349915991C40FD51FEC17FD0761F44B
:10313000808191810296840F951FE901998388838C
:10314000828193819B838A83F0E0E0E012968D91E7
:103150009C9113970097B9F52D913C911197CD0152
:103160000296820F931F2091340330913503281764
:10317000390739F6309751F510923703109236031C
:10318000B0933503A0933403BCCFD383C283408173
:103190005181840F951FC817D90761F44E5F5F4FA7
:1031A00088819981480F591F518340838A819B816F
:1031B000938382832115310509F0B0CFF093370353
:1031C000E09336039ECFFD01DC01C0CF1382128253
:1031D000D7CF10E0C3E6D0E004C0FE010E94BE17C6
:0C31E0002196C436D107C9F7F894FFCF40
:1031EC00FF64000100003803800000000000C001F3
:1031FC0020014D010D027E015C0170010D0A005091
:10320C00C5996970726176656E2E2E2E00536C65B1
:10321C00646F76616E692063617279207679706E65
:10322C0075746F00536C65646F76616E69206361B1
:0C323C007279207A61706E75746F00006A
:00000001FF
